:080ADE004201100000011C00A0
:100FA50043937F53948043915F5392A075BC8075A2
:100FB500DE2278EFE6FF08E6900110CFF0A3EFF010
:030FC500D2AD2288
:03002B000210A21E
:0710A200751C0153BCDF3295
:100F2600E4FDFCEFD3940F4004E4FEFF22E4F5BD9C
:100F3600F5BEF51CEF44C0F5BCE51C60FCE4F51CF1
:0A0F4600AFBEAD07AFBDEFFEAF0573
:010F5000227E
:040A53008F34AB052C
:100A5700E4F535F536F537F538F539F53A74FFF538
:100A67003BF53CE534D3940F4004E4FEFF22E4FA5F
:100A7700EAC39B505DAF34120F268E838F82E582C7
:100A87002538F538E5833537F537C3E582953CE5F5
:100A970083953B500685833B85823CD3E582953A17
:100AA700E5839539400685833985823AC3E53895CC
:100AB7003CFFE537953BFEC3EF953AFFEE9539FED0
:100AC700EB24FEFDE434FFFC1202AC8E358F360AB0
:060AD700809EAE35AF3633
:010ADD0022F6
:09109900900110E0FEA3E0FF222B
:100E190048573A56312E300A53573A56312E300A2E
:100E29000046656220303620323031380A003139C7
:100E39003A30323A30360A00777269746520313DAA
:0E0E4900007265616420313D007665720A001A
:100AE6004200D400000119644100D6004100D9003B
:0B0AF6004100D80001160002170000AC
:10100600AD07AC06538EEF538EF7438E048CD6AFE6
:0A101600058FD753AFFB438E102265
:100F5100438E017FCC7EFF121006E598543F44403A
:100F6100F598D2BCD2ACD29C53A23F439710C20099
:0A0F7100E49000D6F09000D9F022C1
:03002300020BCB02
:100BCB00C0E0C083C082C0D075D000C0073098444D
:100BDB00C29885991620013CE516640D603690008D
:100BEB00D8E0FF04F074002FF582E43400F583E5C0
:100BFB0016F0640A60079000D8E0B413D0D20190CD
:100C0B0000D8E02400F582E43400F583E4F0900092
:020C1B00D8F00F
:100C1D0080B9309904C299C200D007D0D0D082D00B
:040C2D0083D0E0325E
:100931002001030209C67BFF7A0E79521210398E0B
:100941000E8F0F750BFF750C0E750D527B017A0022
:100951007900120B5CEF70219000D8F0C2017BFF8F
:100961007A0E791912104E7BFF7A0E792A12104EE7
:100971007BFF7A0E793702104E7BFF7A0E79411296
:1009810010398E0E8F0F750BFF750C0E750D417B97
:10099100017A007900120B5CEF700280227BFF7AF2
:1009A1000E794A1210398E0E8F0F750BFF750C0ED2
:1009B100750D4A7B017A007900120B5CEF7006908D
:0609C10000D8F0C2012283
:100EF9009000D9E0FF9000D6E0FE6F601F20001C33
:100F090074142EF582E43400F583E0F599D200904B
:0D0F190000D6E004F0C394C04002E4F022D2
:100FE9009000D9E02414F582E43400F583EFF09001
:0D0FF90000D9E004F0C394C04002E4F022EF
:10104E00120293FF600C120FE9740129F9E43AFAC7
:03105E0080EE22FF
:100F7B009000D8E07005F517F51822EF2518F51835
:100F8B00E43517F517D3E5189519E51794004009C3
:090F9B00E4F517F5189000D8F0F8
:010FA400222A
:030B0100011D00D3
:10106100538EBFE4F589758B30758DF8D28ED2AB76
:01107100225C
:03001B00020018C8
:03001800051D3291
:0310AD00AF1D2252
:0C1083000E0001020403080B0A090C0D0A
:100B040042010B03E85200F4000000000000000062
:100B140000000000000000000000021400000212A7
:100B24000000420108000042010E00004200DA0009
:100B3400004200EE00004200F000004200F200001B
:100B440041010D00420106000041010A00021000AB
:010B540000A0
:0400260075C1262258
:0410A90043C110220D
:100FC800EF2511F511E43510F510C390010CE095EB
:100FD8001190010BE095105007B2B5E4F510F5112A
:010FE80022E6
:100ECA00E4FEEE25E024DCF582E43400F583E0FC60
:100EDA00C3EC94805014EFFDEE25E024DCF582E4A7
:0E0EEA003400F583E48DF01203010EBE06D431
:010EF80022D7
:10000300C3900106E09480500BA3E02FF09001060B
:05001300E03400F022C2
:100DDA00E4F5211210998E128F13E4F521E4FDAF88
:100DEA0021120D16E52175F003A424F4F582E434EA
:100DFA0000F58374FFF0A37408F0A37470F07D6E9D
:0E0E0A00AF2112001E0521E521C3940640CF42
:010E180022B7
:100D59008F2AE4FD120E927D01AF2A120D16E52AA3
:100D690025E024DCF582E43400F58374FFF0A3F078
:100D7900E52A75F003A424F4F582E43400F58374BC
:100D8900FFF0A37407F0A374AAF07D77AF2A0200DD
:010D99001E3B
:100D9A008F34E4FD120D167D01AF34120E92E53444
:100DAA0025E024DCF582E43400F583E4F0A3F0E5E1
:100DBA003475F003A424F4F582E43400F58374FF57
:100DCA00F0A3740CF0A3748CF07D74AF3402001E8F
:100C3100E4F52190010DF0F5217D01AF21120E9215
:100C4100E4FDAF21120D16E52125E024DCF582E457
:100C51003400F58374FFF0A3F0E4900106F0A3F0F3
:100C6100E52175F003A424F4F582E43400F58374DE
:100C7100FFF0A37408F0A37470F07D6EAF21120031
:0A0C81001E0521E521C3940640AFD3
:010C8B002246
:020870008F22D5
:10087200E4FED3900107E0942C900106E09401502D
:1008820003020930E4F0A3F07D047F06120A53D379
:100892009000F1E09F9000F0E09E507B9000F3E02A
:1008A2009F9000F2E09E406F90010AE004F0E4F5B0
:1008B20022E4FDAF22120E920522E522C3940640E5
:1008C200F090010AE0D394034064E4F090010D0437
:1008D200F0E4F5227D01AF22120E92E52225E024FA
:1008E200DCF582E43400F583E4F0A3F0E52275F050
:1008F20003A424F4F582E43400F58374FFF0A374B6
:1009020006F0A374C0F07D72AF2212001E0522E52C
:1009120022C3940640BE22E490010AF0F5227D0132
:0E092200AF22120E920522E522C3940640F089
:0109300022A4
:0206C0008F2386
:1006C200E4F524F525F526F527F528F529FEE52399
:1006D20025E024DCF582E43400F583E0FCA3E0D3DA
:1006E2009432EC940050030207A9E52325E024DCB0
:1006F200F582E43400F583E4F0A3F07D047F061272
:100702000A538E248F25AC24AD25E41201D97B290E
:100712007A5C798F783F12002E1202128E268F2772
:10072200AC24AD25E41201D97BE17A7A7994783F41
:1007320012002E1202128E288F29E5239010839325
:10074200FF7D04120A53D3E5279FE5269E504BE511
:10075200299FE5289E404374E82523F582E434006E
:10076200F583E004F074E82523F582E43400F58390
:10077200E0C39403403174E82523F582E43400F5A4
:1007820083E4F0AF23120D59E52325E024DCF58242
:10079200E43400F583E4F0A3F02274E82523F58223
:0707A200E43400F583E4F0EC
:0107A900222D
:0207AA008F2B93
:1007AC00E4F52CF52DEF90108993FF7D04120A537C
:1007BC008E2C8F2DE52B25E024DCF582E43400F51E
:1007CC0083E0FEA3E0C3942CEE94015014C390007C
:1007DC00EFE0952D9000EEE0952C400302086F8021
:1007EC000FC39000DBE0952D9000DAE0952C5005BE
:1007FC00AF2B020D9AC390010FE0952D90010EE0E6
:10080C00952C501EE52B75F003A424F4F582E434EA
:10081C0000F58374FFF0A37404F0A374E3F07D6817
:10082C00802BD3900109E0952D900108E0952C4088
:10083C0032E52B75F003A424F4F582E43400F5833F
:10084C0074FFF0A37405F0A374D3F07D6CAF2B127E
:10085C00001EE52B25E024DCF582E43400F583E46E
:03086C00F0A3F006
:01086F002266
:0204E3008F2E5A
:1004E500E4F52FF530EF90108993FF7D04120A5340
:1004F5008E2F8F30C39000DBE095309000DAE095C9
:100505002F5002802BC390010FE0953090010EE033
:10051500952F5021E52E25E024DCF582E43400F505
:1005250083E0FEA3E0C39405EE940050030205D2D8
:10053500AF2E020D9AC3900109E09530900108E0B5
:10054500952F4033E52E75F003A424F4F582E434A9
:1005550000F58374FFF0A37405F0A374D3F07D6CEC
:10056500AF2E12001EE52E25E024DCF582E43400D2
:10057500F583E4F0A3F022E52E25E024DCF582E402
:100585003400F583C083C082E0C313FFA3E013D01A
:1005950082D083CFF0A3EFF0E52E25E024DCF582B1
:1005A500E43400F583E0FEA3E04E7021E52E75F0FE
:1005B50003A424F4F582E43400F58374FFF0A374F6
:0D05C50007F0A374AAF07D77AF2E12001E80
:0105D2002206
:0205D3008F3166
:1005D500E4F532F533EF90108993FF7D04120A5349
:1005E5008E328F33C39000DBE095339000DAE095CF
:1005F500325002806AC390010FE0953390010EE0FE
:1006050095325033E53175F003A424F4F582E434D2
:1006150000F58374FFF0A37404F0A374E3F07D6820
:10062500AF3112001EE53125E024DCF582E434000B
:10063500F583E4F0A3F022C3900109E0953390011E
:1006450008E09532401EE53125E024DCF582E434EE
:1006550000F583E0FEA3E0C394F4EE9401405BAFA4
:1006650031020D9AE53125E024DCF582E43400F50C
:1006750083C083C082E0C313FFA3E013D082D0837D
:10068500CFF0A3EFF0E53125E024DCF582E434007A
:10069500F583E0FEA3E04E7021E53175F003A42457
:1006A500F4F582E43400F58374FFF0A37407F0A336
:0A06B50074AAF07D77AF3112001E29
:0106BF002218
:100C8C00EF25E024DCF582E43400F583E0FCA3E0FE
:100C9C00C394DCEC9405402EEF25E024DCF582E4D3
:100CAC003400F583E4F0A3F0EF75F003A424F4F51D
:100CBC0082E43400F58374FFF0A37406F0A374C0CF
:070CCC00F07D7212001E22F0
:10032B00E4FE7D047F0F120A538E148F15AC12ADB1
:10033B0013E41201D9A804A905AA06AB077F007E16
:10034B00807DED7C44120137C004C005C006C00798
:10035B00AC14AD15E41201D9D003D002D001D000FA
:10036B0012002E1202129000F2EEF0A3EFF0AC127C
:10037B00AD13E41201D9A804A905AA06AB07E4FF43
:10038B00FE7DC87C44120137C004C005C006C007FF
:10039B00AC14AD15E41201D9D003D002D001D000BA
:1003AB0012002E1202129000F0EEF0A3EFF07D047B
:1003BB007F06120A5390010DE0601CD39000F1E010
:1003CB009F9000F0E09E500C9000F3E09F9000F2A5
:1003DB00E09E5003120C31AC12AD13E41201D9A8FC
:1003EB0004A905AA06AB07E4FFFE7DC87C431201F6
:1003FB0037C004C005C006C007AC14AD15E412012C
:10040B00D9D003D002D001D00012002E12021290CC
:10041B0000EEEEF0A3EFF0AC12AD13E41201D9A88D
:10042B0004A905AA06AB07E4FFFE7DA07C431201DD
:10043B0037C004C005C006C007AC14AD15E41201EB
:10044B00D9D003D002D001D00012002E120212908C
:10045B0000DAEEF0A3EFF0AC12AD13E41201D9A861
:10046B0004A905AA06AB07E4FFFE7D967C431201A7
:10047B0037C004C005C006C007AC14AD15E41201AB
:10048B00D9D003D002D001D00012002E120212904C
:10049B00010EEEF0A3EFF0AC12AD13E41201D9A8EC
:1004AB0004A905AA06AB07E4FFFE7DA07C40120160
:1004BB0037C004C005C006C007AC14AD15E412016B
:1004CB00D9D003D002D001D00012002E120212900C
:0704DB000108EEF0A3EFF0B1
:0104E20022F7
:100CD300E4F521F521E52175F003A424F4F582E47C
:100CE3003400F583A3E0FAA3E04A601DE52175F023
:100CF30003A424F4F582E43400F583A3E0FAA3E02B
:100D0300F5828A83AF211203290521E521C39406C5
:020D130040C3DB
:010D150022BB
:100E9200EF14601614601914601C14601F14602291
:100EA20024057023ED24FF92A122ED24FF92C22299
:100EB200ED24FF92A022ED24FF92C122ED24FF92A5
:080EC200B722ED24FF92B622D5
:100D1600EFC39406503CED94015037EF146016145F
:100D2600601914601C14601F14602224057023EDE2
:100D360024FF92A222ED24FF92A322ED24FF92A487
:100D460022ED24FF92A522ED24FF92A622ED24FF98
:030D560092A7223F
:05001E008F358D362234
:060B5500011A00011B0063
:0A108F00EFD3940040031F80F72206
:10107200AE07EED3940040087FFF12108F1E80F25D
:01108200224B
:10102000C3EF951AF51B60108F1AFF120FC8AF1B84
:08103000120ECAAF1B120003EF
:011038002295
:100E5700E4F594F593F592F5917596FFF59575B2CE
:100E6700E0F5B175B403F5B3F5CAF5C9120FA512CC
:100E77001061120026D2AF120DDA12032B120CD317
:0B0E87001210AD1210201210A980EF15
:10002E00EC4D6011E8497017ED33EC3304600DE4CC
:10003E00FCFFFEFD22E933E8330470F802027E1263
:10004E00024958046009E4CC248150062850090264
:10005E000288284003020285C0E0EB4A7044B98052
:10006E0006D0E0FB020274EF4E701CBD8008EBFF61
:10007E00EAFEE9FD80EBE98DF0A4FEE5F002011742
:10008E00E9CDF9EAFEEBFFEF89F0A4FCE5F0CE89AD
:10009E00F0A42EFFE435F0CD89F0A42DFEE435F06A
:1000AE008067EF4E7005BD80D780C3EF8BF0A4AC98
:1000BE00F0EE8BF0A42CFCE435F0F8EF8AF0A42CD3
:1000CE00E5F038FCE433CB8DF0A42CFCE5F03BF8E6
:1000DE00EE8AF0A42CFCE5F038F8E433CF89F0A4D6
:1000EE002CFCE5F038CF3400CE89F0A42FFFE5F0DC
:1000FE003EFEE433C98DF0A42EFEE5F039CD8AF034
:10010E00A42FFFE5F03EFEE43DFD33D0E0FB5007AB
:10011E000BBB000F020288EC2CFCEF33FFEE33FE1C
:06012E00ED33FD0202604A
:10013400020288EC5D046005E85904700302027E43
:10014400120249580460F6EC4860F2EC7004FDFEBB
:10015400FF22C860DB2481C85009C398600250069E
:100164000202859850CAF582E9294B4A7005AB8290
:1001740002027475F0007C1A7880C3EF9BEE9AED4E
:1001840099400DC3EF9BFFEE9AFEED99FDE842F016
:10019400DC23ACF0D0E0FFD0E0FED0E0FDAB822069
:1001A400E7101BEB60BAEC2CFCEF33FFEE33FEEDF3
:1001B40033FD020260E803F830E705C0F075F00093
:1001C400EF2FFFEE33FEED33FD40B830E7C280AAD7
:1001D40075F020800E75F010800575F0087D007EA6
:1001E400007F003392D530D503120317EC3340104F
:1001F400EF33FFEE33FEED33FDEC33FCD5F0ED22AF
:0E020400E5F0247EA2D513CC92E7CDCEFF22EA
:10021200EDD2E7CD33EC3392D524814006E4FFFEE4
:10022200FDFC22FCE4CFCECDCC24E0501174FF8043
:10023200EDC3CC13CCCD13CDCE13CECF13CF0470E0
:07024200F030D5DE020317C6
:10024900E9D2E7C933E833F892D5EDD2E7CD33ECFB
:0702590033FC5002B2D52274
:10026000EC30E7100FBF000C0EBE00080DBD0004FF
:100270000BEB6014A2D5EB13FCED92E7FD2274FFAB
:10028000FCFDFEFF22E480F8A2D574FF13FC7D8004
:03029000E480EF18
:030000000209C72B
:0C09C700787FE4F6D8FD7581F0020A0E7E
:10029300BB010689828A83E0225002E722BBFE0269
:0902A300E32289828A83E493229C
:1002AC00BC000BBE0029EF8DF084FFADF022E4CC36
:1002BC00F875F008EF2FFFEE33FEEC33FCEE9DECFF
:1002CC00984005FCEE9DFE0FD5F0E9E4CEFD22ED45
:1002DC00F8F5F0EE8420D21CFEADF075F008EF2F8F
:1002EC00FFED33FD4007985006D5F0F222C398FD80
:0502FC000FD5F0EA221D
:10030100C5F0F8A3E028F0C5F0F8E5821582700287
:060311001583E038F02224
:0E031700C3E49FFFE49EFEE49DFDE49CFC22F7
:060325008A838982E47363
:100B5C008B088A09890AAB0BAA0CA90D120293FE09
:100B6C00AB08AA09A90A120293FF6E702BEF600D55
:100B7C00E50F150F7002150E14450E70037F002241
:100B8C007401250AF50AE43509F5097401250DF5FA
:100B9C000DE4350CF50C80BEAB08AA09A90A1202AB
:100BAC0093FDD3EE6480F8ED64809840037F0122BE
:0F0BBC00AB0BAA0CA90D120293FFC3ED9FFF22F2
:10103900E4FFFE120293600C0FEF70010E09E970D4
:05104900F20A80EF2215
:1009D300020E57E493A3F8E493A34003F68001F2D5
:1009E30008DFF48029E493A3F85407240CC8C33325
:1009F300C4540F4420C8834004F456800146F6DFF4
:100A0300E4800B0102040810204080900ADEE47E9B
:100A1300019360BCA3FF543F30E509541FFEE493E8
:100A2300A360010ECF54C025E060A840B8E493A3AF
:100A3300FAE493A3F8E493A3C8C582C8CAC583CADA
:100A4300F0A3C8C582C8CAC583CADFE9DEE780BE92
:010B5B000099
:00000001FF
