:080A8C0042010E0000011400FC
:100F830043937F53948043915F5392A075BC8075C4
:100F9300DE2778EFE6FF08E690010ECFF0A3EFF02F
:030FA300D2AD22AA
:03002B0002109A26
:07109A0075140153BCDF32A5
:100F0400E4FDFCEFD3940F4004E4FEFF22E4F5BDBE
:100F1400F5BEF514EF44C0F5BCE51460FCE4F5142B
:0A0F2400AFBEAD07AFBDEFFEAF0595
:010F2E0022A0
:040A01008F34AB057E
:100A0500E4F535F536F537F538F539F53A74FFF58A
:100A15003BF53CE534D3940F4004E4FEFF22E4FAB1
:100A2500EAC39B505DAF34120F048E838F82E5823B
:100A35002538F538E5833537F537C3E582953CE547
:100A450083953B500685833B85823CD3E582953A69
:100A5500E5839539400685833985823AC3E538951E
:100A65003CFFE537953BFEC3EF953AFFEE9539FE22
:100A7500EB24FEFDE434FFFC1202AC8E358F360A02
:060A8500809EAE35AF3685
:010A8B002248
:0910910090010EE0FEA3E0FF2235
:100E320048573A56312E300A53573A56312E300A15
:100E42000046656220303220323031380A003139B2
:100E52003A31373A34320A00777269746520313D8B
:0E0E6200007265616420313D007665720A0001
:100A94004200D400000111644100D6004100D90095
:0B0AA4004100D800010E00020F00000E
:10100200AD07AC06538EEF538EF7438E048CD6AFEA
:0A101200058FD753AFFB438E102269
:100F2F00438E017FCC7EFF121002E598543F444060
:100F3F00F598D2BCD2ACD29C53A23F439710C200BB
:0A0F4F00E49000D6F09000D9F022E3
:03002300020BE3EA
:100BE300C0E0C083C082C0D075D000C00730984435
:100BF300C29885990E20013CE50E640D6036900085
:100C0300D8E0FF04F074002FF582E43400F583E5A7
:100C13000EF0640A60079000D8E0B413D0D20190BC
:100C230000D8E02400F582E43400F583E4F090007A
:020C3300D8F0F7
:100C350080B9309904C299C200D007D0D0D082D0F3
:040C450083D0E03246
:1008DF002001030209747BFF7A0E796B1210318E9F
:1008EF00278F287524FF75250E75266B7B017A00DF
:1008FF007900120B74EF70219000D8F0C2017BFFCA
:10090F007A0E79321210467BFF7A0E794312104617
:10091F007BFF7A0E79500210467BFF7A0E795A12BE
:10092F0010318E278F287524FF75250E75265A7B5B
:10093F00017A007900120B74EF700280227BFF7A2C
:10094F000E79631210318E278F287524FF75250EAF
:10095F007526637B017A007900120B74EF70069095
:06096F0000D8F0C20122D5
:100ED7009000D9E0FF9000D6E0FE6F601F20001C55
:100EE70074142EF582E43400F583E0F599D200906E
:0D0EF70000D6E004F0C394C04002E4F022F5
:100FE5009000D9E02414F582E43400F583EFF09005
:0D0FF50000D9E004F0C394C04002E4F022F3
:10104600120293FF600C120FE5740129F9E43AFAD3
:0310560080EE2207
:100F59009000D8E07005F50FF51022EF2510F51077
:100F6900E4350FF50FD3E5109511E50F940040090D
:090F7900E4F50FF5109000D8F02A
:010F8200224C
:030AAF000115002E
:10105900538EBFE4F589758B30758DF8D28ED2AB7E
:011069002264
:03001B000210A12F
:0310A10005153200
:0310A400AF152263
:0C107B000E0001020403080B0A090C0D12
:100AB20042010903E85200F20000000000000000B9
:100AC20000000000000000000000020C0000020A0A
:100AD2000000420106000042010C00004200DA0060
:100AE200004200EE00004200F0000041010B004213
:0C0AF2000104000041010800020800009F
:04001E0075C1262260
:0400260043C11022A0
:100FA600EF2509F509E43508F508C390010AE0952F
:100FB60009900109E095085007B2B5E4F508F5096E
:010FC6002208
:100EA800E4FEEE25E024DCF582E43400F583E0FC82
:100EB800C3EC94805014EFFDEE25E024DCF582E4C9
:0E0EC8003400F583E48DF01203010EBE06D453
:010ED60022F9
:10101C00C3900104E09480500BA3E02FF0900104E6
:05102C00E03400F02299
:100DF300E4F5211210918E0A8F0BE4F521E4FDAF87
:100E030021120B05E52175F003A424F2F582E434E5
:100E130000F58374FFF0A37407F0A3746AF07D6E8A
:0E0E2300AF211200030521E521C3940640CF44
:010E3100229E
:100D72008F2AE4FD120E707D01AF2A120B05E52ABF
:100D820025E024DCF582E43400F58374FFF0A3F05F
:100D9200E52A75F003A424F2F582E43400F58374A5
:100DA200FFF0A37408F0A3742BF07D77AF2A020042
:010DB200033D
:100DB3008F34E4FD120B057D01AF34120E70E53460
:100DC30025E024DCF582E43400F583E4F0A3F0E5C8
:100DD3003475F003A424F2F582E43400F58374FF40
:100DE300F0A3740CF0A374A4F07D74AF3402000379
:100C4900E4F52190010BF0F5217D01AF21120E7021
:100C5900E4FDAF21120B05E52125E024DCF582E452
:100C69003400F58374FFF0A3F0E4900104F0A3F0DD
:100C7900E52175F003A424F2F582E43400F58374C8
:100C8900FFF0A37407F0A3746AF07D6EAF21120020
:0A0C9900030521E521C3940640AFD6
:010CA300222E
:02076A008F22DC
:10076C00E4FED3900105E0942C900104E094015038
:10077C000302082AE4F0A3F07D047F06120A01D3D9
:10078C009000EFE09F9000EEE09E507B9000F1E037
:10079C009F9000F0E09E406F900108E004F0E4F5BB
:1007AC0022E4FDAF22120E700522E522C39406400E
:1007BC00F0900108E0D394054064E4F090010B0440
:1007CC00F0E4F5227D01AF22120E70E52225E02423
:1007DC00DCF582E43400F583E4F0A3F0E52275F057
:1007EC0003A424F2F582E43400F58374FFF0A374BF
:1007FC0006F0A37480F07D72AF221200030522E58F
:10080C0022C3940640BE22E4900108F0F5227D013B
:0E081C00AF22120E700522E522C3940640F0B2
:01082A0022AB
:020680008F23C6
:10068200E4F524F525F526F527F528F529FEE523D9
:1006920025E024DCF582E43400F583E0FCA3E0D31A
:1006A2009432EC94005003020769E52325E024DC30
:1006B200F582E43400F583E4F0A3F07D047F0612B2
:1006C2000A018E248F25AC24AD25E41201D97B29A1
:1006D2007A5C798F783F12002E1202128E268F27B3
:1006E200AC24AD25E41201D97BE17A7A7994783F82
:1006F20012002E1202128E288F29E52390107B936E
:10070200FF7D04120A01D3E5279FE5269E504BE5A3
:10071200299FE5289E404374E82523F582E43400AE
:10072200F583E004F074E82523F582E43400F583D0
:10073200E0C39403403174E82523F582E43400F5E4
:1007420083E4F0AF23120D72E52325E024DCF58269
:10075200E43400F583E4F0A3F02274E82523F58263
:07076200E43400F583E4F02C
:01076900226D
:02082B008F2B11
:10082D00E4F52CF52DEF25E024DCF582E43400F51C
:10083D0083E0FEA3E0C39405EE940050030208DEAE
:10084D00EF90108193FF7D04120A018E2C8F2DC322
:10085D009000DBE0952D9000DAE0952C5005AF2B44
:10086D00020DB3C390010DE0952D90010CE0952C78
:10087D00501EE52B75F003A424F2F582E43400F547
:10088D008374FFF0A37404F0A374A3F07D68802B30
:10089D00D3900107E0952D900106E0952C4032E5AF
:1008AD002B75F003A424F2F582E43400F58374FF74
:1008BD00F0A37405F0A37493F07D6CAF2B120003BD
:1008CD00E52B25E024DCF582E43400F583E4F0A388
:0108DD00F02A
:0108DE0022F7
:0204A3008F2E9A
:1004A500E4F52FF530EF90108193FF7D04120A01DA
:1004B5008E2F8F30C39000DBE095309000DAE09509
:1004C5002F5002802BC390010DE0953090010CE078
:1004D500952F5021E52E25E024DCF582E43400F546
:1004E50083E0FEA3E0C39405EE9400500302059259
:1004F500AF2E020DB3C3900107E09530900106E0E1
:10050500952F4033E52E75F003A424F2F582E434EB
:1005150000F58374FFF0A37405F0A37493F07D6C6C
:10052500AF2E120003E52E25E024DCF582E434002D
:10053500F583E4F0A3F022E52E25E024DCF582E442
:100545003400F583C083C082E0C313FFA3E013D05A
:1005550082D083CFF0A3EFF0E52E25E024DCF582F1
:10056500E43400F583E0FEA3E04E7021E52E75F03E
:1005750003A424F2F582E43400F58374FFF0A37438
:0D05850008F0A3742BF07D77AF2E12000359
:010592002246
:020593008F31A6
:10059500E4F532F533EF90108193FF7D04120A01E3
:1005A5008E328F33C39000DBE095339000DAE0950F
:1005B500325002806AC390010DE0953390010CE042
:1005C50095325033E53175F003A424F2F582E43415
:1005D50000F58374FFF0A37404F0A374A3F07D68A1
:1005E500AF31120003E53125E024DCF582E4340067
:1005F500F583E4F0A3F022C3900107E09533900161
:1006050006E09532401EE53125E024DCF582E43430
:1006150000F583E0FEA3E0C394F4EE9401405BAFE4
:1006250031020DB3E53125E024DCF582E43400F533
:1006350083C083C082E0C313FFA3E013D082D083BD
:10064500CFF0A3EFF0E53125E024DCF582E43400BA
:10065500F583E0FEA3E04E7021E53175F003A42497
:10066500F2F582E43400F58374FFF0A37408F0A377
:0A067500742BF07D77AF3112000303
:01067F002258
:100CA400EF25E024DCF582E43400F583E0FCA3E0E6
:100CB400C394DCEC9405402EEF25E024DCF582E4BB
:100CC4003400F583E4F0A3F0EF75F003A424F2F507
:100CD40082E43400F58374FFF0A37406F0A37480F7
:070CE400F07D7212000322F3
:10032B00E4FE7D047F0F120A018E0C8F0DAC0AAD1B
:10033B000BE41201D9A804A905AA06AB077F007E1E
:10034B00807DED7C44120137C004C005C006C00798
:10035B00AC0CAD0DE41201D9D003D002D001D0000A
:10036B0012002E1202129000F0EEF0A3EFF0AC0A86
:10037B00AD0BE41201D9A804A905AA06AB07E4FF4B
:10038B00FE7DC87C44120137C004C005C006C007FF
:10039B00AC0CAD0DE41201D9D003D002D001D000CA
:1003AB0012002E1202129000EEEEF0A3EFF07D047D
:1003BB007F06120A0190010BE0601CD39000EFE066
:1003CB009F9000EEE09E500C9000F1E09F9000F0AB
:1003DB00E09E5003120C49AC0AAD0BE41201D9A8F4
:1003EB0004A905AA06AB07E4FFFE7DC87C431201F6
:1003FB0037C004C005C006C007AC0CAD0DE412013C
:10040B00D9D003D002D001D00012002E12021290CC
:10041B0000DAEEF0A3EFF0AC0AAD0BE41201D9A8B1
:10042B0004A905AA06AB07E4FFFE7D967C431201E7
:10043B0037C004C005C006C007AC0CAD0DE41201FB
:10044B00D9D003D002D001D00012002E120212908C
:10045B00010CEEF0A3EFF0AC0AAD0BE41201D9A83E
:10046B0004A905AA06AB07E4FFFE7D407C40120100
:10047B0037C004C005C006C007AC0CAD0DE41201BB
:10048B00D9D003D002D001D00012002E120212904C
:07049B000106EEF0A3EFF0F3
:0104A2002237
:100D2F00E4F521F521E52175F003A424F2F582E421
:100D3F003400F583A3E0FAA3E04A601DE52175F0C6
:100D4F0003A424F2F582E43400F583A3E0FAA3E0D0
:100D5F00F5828A83AF211203290521E521C3940669
:020D6F0040C37F
:010D7100225F
:100E7000EF14601614601914601C14601F146022B3
:100E800024057023ED24FF92A122ED24FF92C222BB
:100E9000ED24FF92A022ED24FF92C122ED24FF92C7
:080EA000B722ED24FF92B622F7
:100B05008F358D36E535C394065063E5369401502F
:100B15005D7F47120FE5E5352431FF120FE57F3D77
:100B2500120FE5E5362430FF120FE57F0A120FE5B7
:100B3500E53514601714601B14601F1460231460DE
:100B45002724057029E53624FF92A222E53624FFE5
:100B550092A322E53624FF92A422E53624FF92A52E
:0F0B650022E53624FF92A622E53624FF92A7222E
:100003008F35AE05AF06120FE5E5352431FF120F2C
:06001300E57F0A020FE583
:060AFE00011200011300CB
:0A108700EFD3940040031F80F7220E
:10106A00AE07EED3940040087FFF1210871E80F26D
:01107A002253
:100FC700C3EF9512F51360158F12FF120FA6AF131B
:0D0FD700120F59AF13120EA8AF1312101C09
:010FE40022EA
:100CEB00E4F594F593F592F5917596FFF59575B23C
:100CFB00E0F5B175B403F5B3F5CAF5C9120F83125C
:100D0B000F2F12105912001ED2AF120DF312032B1C
:100D1B00120D2F1208DF120ED71210A4120FC712CA
:040D2B00002680E935
:10002E00EC4D6011E8497017ED33EC3304600DE4CC
:10003E00FCFFFEFD22E933E8330470F802027E1263
:10004E00024958046009E4CC248150062850090264
:10005E000288284003020285C0E0EB4A7044B98052
:10006E0006D0E0FB020274EF4E701CBD8008EBFF61
:10007E00EAFEE9FD80EBE98DF0A4FEE5F002011742
:10008E00E9CDF9EAFEEBFFEF89F0A4FCE5F0CE89AD
:10009E00F0A42EFFE435F0CD89F0A42DFEE435F06A
:1000AE008067EF4E7005BD80D780C3EF8BF0A4AC98
:1000BE00F0EE8BF0A42CFCE435F0F8EF8AF0A42CD3
:1000CE00E5F038FCE433CB8DF0A42CFCE5F03BF8E6
:1000DE00EE8AF0A42CFCE5F038F8E433CF89F0A4D6
:1000EE002CFCE5F038CF3400CE89F0A42FFFE5F0DC
:1000FE003EFEE433C98DF0A42EFEE5F039CD8AF034
:10010E00A42FFFE5F03EFEE43DFD33D0E0FB5007AB
:10011E000BBB000F020288EC2CFCEF33FFEE33FE1C
:06012E00ED33FD0202604A
:10013400020288EC5D046005E85904700302027E43
:10014400120249580460F6EC4860F2EC7004FDFEBB
:10015400FF22C860DB2481C85009C398600250069E
:100164000202859850CAF582E9294B4A7005AB8290
:1001740002027475F0007C1A7880C3EF9BEE9AED4E
:1001840099400DC3EF9BFFEE9AFEED99FDE842F016
:10019400DC23ACF0D0E0FFD0E0FED0E0FDAB822069
:1001A400E7101BEB60BAEC2CFCEF33FFEE33FEEDF3
:1001B40033FD020260E803F830E705C0F075F00093
:1001C400EF2FFFEE33FEED33FD40B830E7C280AAD7
:1001D40075F020800E75F010800575F0087D007EA6
:1001E400007F003392D530D503120317EC3340104F
:1001F400EF33FFEE33FEED33FDEC33FCD5F0ED22AF
:0E020400E5F0247EA2D513CC92E7CDCEFF22EA
:10021200EDD2E7CD33EC3392D524814006E4FFFEE4
:10022200FDFC22FCE4CFCECDCC24E0501174FF8043
:10023200EDC3CC13CCCD13CDCE13CECF13CF0470E0
:07024200F030D5DE020317C6
:10024900E9D2E7C933E833F892D5EDD2E7CD33ECFB
:0702590033FC5002B2D52274
:10026000EC30E7100FBF000C0EBE00080DBD0004FF
:100270000BEB6014A2D5EB13FCED92E7FD2274FFAB
:10028000FCFDFEFF22E480F8A2D574FF13FC7D8004
:03029000E480EF18
:030000000209757D
:0C097500787FE4F6D8FD7581F00209BC23
:10029300BB010689828A83E0225002E722BBFE0269
:0902A300E32289828A83E493229C
:1002AC00BC000BBE0029EF8DF084FFADF022E4CC36
:1002BC00F875F008EF2FFFEE33FEEC33FCEE9DECFF
:1002CC00984005FCEE9DFE0FD5F0E9E4CEFD22ED45
:1002DC00F8F5F0EE8420D21CFEADF075F008EF2F8F
:1002EC00FFED33FD4007985006D5F0F222C398FD80
:0502FC000FD5F0EA221D
:10030100C5F0F8A3E028F0C5F0F8E5821582700287
:060311001583E038F02224
:0E031700C3E49FFFE49EFEE49DFDE49CFC22F7
:060325008A838982E47363
:100B74008B218A228923AB24AA25A926120293FE5B
:100B8400AB21AA22A923120293FF6E702BEF600DF2
:100B9400E52815287002152714452770037F0022C5
:100BA40074012523F523E43522F52274012526F565
:100BB40026E43525F52580BEAB21AA22A9231202FD
:100BC40093FDD3EE6480F8ED64809840037F0122A6
:0F0BD400AB24AA25A926120293FFC3ED9FFF228F
:10103100E4FFFE120293600C0FEF70010E09E970DC
:05104100F20A80EF221D
:10098100020CEBE493A3F8E493A34003F68001F295
:1009910008DFF48029E493A3F85407240CC8C33377
:1009A100C4540F4420C8834004F456800146F6DF46
:1009B100E4800B0102040810204080900A8CE47E40
:1009C100019360BCA3FF543F30E509541FFEE4933B
:1009D100A360010ECF54C025E060A840B8E493A302
:1009E100FAE493A3F8E493A3C8C582C8CAC583CA2D
:1009F100F0A3C8C582C8CAC583CADFE9DEE780BEE5
:010B040000F0
:00000001FF
