:080AB00042010E0000011400D8
:100FA70043937F53948043915F5392A075BC8075A0
:100FB700DE2F78EFE6FF08E690010ECFF0A3EFF003
:030FC700D2AD2286
:03002B000210C5FB
:0710C50075140153BCDF327A
:100F2800E4FDFCEFD3940F4004E4FEFF22E4F5BD9A
:100F3800F5BEF514EF44C0F5BCE51460FCE4F51407
:0A0F4800AFBEAD07AFBDEFFEAF0571
:010F5200227C
:040A25008F34AB055A
:100A2900E4F535F536F537F538F539F53A74FFF566
:100A39003BF53CE534D3940F4004E4FEFF22E4FA8D
:100A4900EAC39B505DAF34120F288E838F82E582F3
:100A59002538F538E5833537F537C3E582953CE523
:100A690083953B500685833B85823CD3E582953A45
:100A7900E5839539400685833985823AC3E53895FA
:100A89003CFFE537953BFEC3EF953AFFEE9539FEFE
:100A9900EB24FEFDE434FFFC1202AC8E358F360ADE
:060AA900809EAE35AF3661
:010AAF002224
:0910BC0090010EE0FEA3E0FF220A
:100E560048573A56312E300A53573A56312E300AF1
:100E6600004A616E20333020323031380A00313189
:100E76003A32363A34300A00777269746520313D69
:0E0E8600007265616420313D007665720A00DD
:100AB8004200D400000111644100D6004100D90071
:0B0AC8004100D800010E00020F0000EA
:10104200AD07AC06538EEF538EF7438E048CD6AFAA
:0A105200058FD753AFFB438E102229
:100F5300438E017FCC7EFF121042E598543F4440FC
:100F6300F598D2BCD2ACD29C53A23F439710C20097
:0A0F7300E49000D6F09000D9F022BF
:03002300020C07C5
:100C0700C0E0C083C082C0D075D000C00730984410
:100C1700C29885990E20013CE50E640D6036900060
:100C2700D8E0FF04F074002FF582E43400F583E583
:100C37000EF0640A60079000D8E0B413D0D2019098
:100C470000D8E02400F582E43400F583E4F0900056
:020C5700D8F0D3
:100C590080B9309904C299C200D007D0D0D082D0CF
:040C690083D0E03222
:100903002001030209987BFF7A0E798F12105C8E07
:10091300278F287524FF75250E75268F7B017A0096
:100923007900120B98EF70219000D8F0C2017BFF81
:100933007A0E79561210717BFF7A0E796712107155
:100943007BFF7A0E79740210717BFF7A0E797E1227
:10095300105C8E278F287524FF75250E75267E7BE8
:10096300017A007900120B98EF700280227BFF7AE4
:100973000E798712105C8E278F287524FF75250E3C
:100983007526877B017A007900120B98EF70069029
:0609930000D8F0C20122B1
:100EFB009000D9E0FF9000D6E0FE6F601F20001C31
:100F0B0074142EF582E43400F583E0F599D2009049
:0D0F1B0000D6E004F0C394C04002E4F022D0
:101009009000D9E02414F582E43400F583EFF090E0
:0D10190000D9E004F0C394C04002E4F022CE
:10107100120293FF600C121009740129F9E43AFA83
:0310810080EE22DC
:100F7D009000D8E07005F50FF51022EF2510F51053
:100F8D00E4350FF50FD3E5109511E50F94004009E9
:090F9D00E4F50FF5109000D8F006
:010FA6002228
:030AD3000115000A
:10108400538EBFE4F589758B30758DF8D28ED2AB53
:011094002239
:03001B00020018C8
:0300180005153299
:0310CC00AF15223B
:0C10A6000E0001020403080B0A090C0DE7
:100AD60042010903E85200F2000000000000000095
:100AE60000000000000000000000020C0000020AE6
:100AF6000000420106000042010C00004200DA003C
:100B0600004200EE00004200F0000041010B0042EE
:0C0B16000104000041010800020800007A
:04001E0075C1262260
:0400260043C11022A0
:100FCA00EF2509F509E43508F508C390010AE0950B
:100FDA0009900109E095085007B2B5E4F508F5094A
:010FEA0022E4
:100ECC00E4FEEE25E024DCF582E43400F583E0FC5E
:100EDC00C3EC94805014EFFDEE25E024DCF582E4A5
:0E0EEC003400F583E48DF01203010EBE06D42F
:010EFA0022D5
:10000300C3900104E09480500BA3E02FF09001040F
:05001300E03400F022C2
:100E1700E4F5211210BC8E0A8F0BE4F521E4FDAF37
:100E270021120B29E52175F003A424F2F582E4349D
:100E370000F58374FFF0A37407F0A3748EF07D6E42
:0E0E4700AF2112102C0521E521C3940640CFE7
:010E5500227A
:100D96008F2AE4FD120E947D01AF2A120B29E52A53
:100DA60025E024DCF582E43400F58374FFF0A3F03B
:100DB600E52A75F003A424F2F582E43400F5837481
:100DC600FFF0A37408F0A3744FF07D77AF2A0210EA
:010DD6002CF0
:100DD7008F347D01120E94E4FDAF34120B29E534F4
:100DE70025E024DCF582E43400F583E4F0A3F0E5A4
:100DF7003475F003A424F2F582E43400F58374FF1C
:100E0700F0A3740CF0A374C8F07D74AF3402102CF7
:100C6D00E4F52190010BF0F5217D01AF21120E94D9
:100C7D00E4FDAF21120B29E52125E024DCF582E40A
:100C8D003400F58374FFF0A3F0E4900104F0A3F0B9
:100C9D00E52175F003A424F2F582E43400F58374A4
:100CAD00FFF0A37407F0A3748EF07D6EAF211210C8
:0A0CBD002C0521E521C3940640AF89
:010CC700220A
:02078E008F22B8
:10079000E4FED3900105E0942C900104E094015014
:1007A0000302084EE4F0A3F07D067F06120A25D36B
:1007B0009000EFE09F9000EEE09E507B9000F1E013
:1007C0009F9000F0E09E406F900108E004F0E4F597
:1007D00022E4FDAF22120E940522E522C3940640C6
:1007E000F0900108E0D394054064E4F090010B041C
:1007F000F0E4F5227D01AF22120E94E52225E024DB
:10080000DCF582E43400F583E4F0A3F0E52275F032
:1008100003A424F2F582E43400F58374FFF0A3749A
:1008200006F0A374A4F07D72AF2212102C0522E50D
:1008300022C3940640BE22E4900108F0F5227D0117
:0E084000AF22120E940522E522C3940640F06A
:01084E002287
:0206A4008F23A2
:1006A600E4F524F525F526F527F528F529FEE523B5
:1006B60025E024DCF582E43400F583E0FCA3E0D3F6
:1006C6009464EC9400500302078DE52325E024DCB6
:1006D600F582E43400F583E4F0A3F07D067F06128C
:1006E6000A258E248F25AC24AD25E41201D97BAED4
:1006F6007A477991783F12002E1202128E268F27A2
:10070600AC24AD25E41201D97B937A187994783F0D
:1007160012002E1202128E288F29E5239010A6931E
:10072600FF7D06120A25D3E5279FE5269E504BE559
:10073600299FE5289E404374E82523F582E434008A
:10074600F583E004F074E82523F582E43400F583AC
:10075600E0C39403403174E82523F582E43400F5C0
:1007660083E4F0AF23120D96E52325E024DCF58221
:10077600E43400F583E4F0A3F02274E82523F5823F
:07078600E43400F583E4F008
:01078D002249
:02084F008F2BED
:10085100E4F52CF52DEF25E024DCF582E43400F5F8
:1008610083E0FEA3E0C39405EE9400500302090265
:10087100EF9010AC93FF7D06120A258E2C8F2DC3AD
:100881009000DBE0952D9000DAE0952C5005AF2B20
:10089100020DD7C390010DE0952D90010CE0952C30
:1008A100501EE52B75F003A424F2F582E43400F523
:1008B1008374FFF0A37405F0A374B4F07D68802BFA
:1008C100D3900107E0952D900106E0952C4032E58B
:1008D1002B75F003A424F2F582E43400F58374FF50
:1008E100F0A37404F0A374A3F07D6CAF2B12102C51
:1008F100E52B25E024DCF582E43400F583E4F0A364
:01090100F005
:0109020022D2
:0205B4008F2E88
:1005B600E4F52FF530EF9010AC93FF7D06120A2577
:1005C6008E2F8F30C39000DBE095309000DAE095F7
:1005D6002F5002802BC390010DE0953090010CE066
:1005E600952F5021E52E25E024DCF582E43400F534
:1005F60083E0FEA3E0C39405EE940050030206A335
:10060600AF2E020DD7C3900107E09530900106E0AA
:10061600952F4033E52E75F003A424F2F582E434D9
:1006260000F58374FFF0A37404F0A374A3F07D6C4B
:10063600AF2E12102CE52E25E024DCF582E43400E2
:10064600F583E4F0A3F022E52E25E024DCF582E430
:100656003400F583C083C082E0C313FFA3E013D048
:1006660082D083CFF0A3EFF0E52E25E024DCF582DF
:10067600E43400F583E0FEA3E04E7021E52E75F02C
:1006860003A424F2F582E43400F58374FFF0A37426
:0D06960008F0A3744FF07D77AF2E12102CEA
:0106A3002234
:0204A3008F3197
:1004A500E4F532F533EF9010AC93FF7D06120A2583
:1004B5008E328F33C39000DBE095339000DAE09500
:1004C50032502CE53175F003A424F2F582E43400B2
:1004D500F58374FFF0A37408F0744F121026E5310C
:1004E50025E024DCF582E43400F58374FF803EC307
:1004F50090010DE0953390010CE095325033E531D4
:1005050075F003A424F2F582E43400F58374FFF05A
:10051500A37405F0A374B4F07D68AF3112102CE517
:100525003125E024DCF582E43400F583E4F0A3F022
:1005350022C3900107E09533900106E09532401EF5
:10054500E53125E024DCF582E43400F583E0FEA303
:10055500E0C394F4EE94014055AF31020DD7E53177
:1005650025E024DCF582E43400F583C083C082E015
:10057500C313FFA3E013D082D083CFF0A3EFF0E540
:100585003125E024DCF582E43400F583E0FEA3E0C8
:100595004E701BE53175F003A424F2F582E43400B6
:0E05A500F58374FFF0A37408F0744F12102653
:0105B3002225
:100CC800EF25E024DCF582E43400F583E0FCA3E0C2
:100CD800C394DCEC9405402EEF25E024DCF582E497
:100CE8003400F583E4F0A3F0EF75F003A424F2F5E3
:100CF80082E43400F58374FFF0A37406F0A374A4AF
:070D0800F07D7212102C2295
:10032B00E4FE7D067F0F120A258E0C8F0DAC0AADF5
:10033B000BE41201D9A804A905AA06AB077F007E1E
:10034B00807DED7C44120137C004C005C006C00798
:10035B00AC0CAD0DE41201D9D003D002D001D0000A
:10036B0012002E1202129000F0EEF0A3EFF0AC0A86
:10037B00AD0BE41201D9A804A905AA06AB07E4FF4B
:10038B00FE7DC87C44120137C004C005C006C007FF
:10039B00AC0CAD0DE41201D9D003D002D001D000CA
:1003AB0012002E1202129000EEEEF0A3EFF07D067B
:1003BB007F06120A2590010BE0601CD39000EFE042
:1003CB009F9000EEE09E500C9000F1E09F9000F0AB
:1003DB00E09E5003120C6DAC0AAD0BE41201D9A8D0
:1003EB0004A905AA06AB07E4FFFE7DC87C431201F6
:1003FB0037C004C005C006C007AC0CAD0DE412013C
:10040B00D9D003D002D001D00012002E12021290CC
:10041B0000DAEEF0A3EFF0AC0AAD0BE41201D9A8B1
:10042B0004A905AA06AB07E4FFFE7D967C431201E7
:10043B0037C004C005C006C007AC0CAD0DE41201FB
:10044B00D9D003D002D001D00012002E120212908C
:10045B00010CEEF0A3EFF0AC0AAD0BE41201D9A83E
:10046B0004A905AA06AB07E4FFFE7D207C4112011F
:10047B0037C004C005C006C007AC0CAD0DE41201BB
:10048B00D9D003D002D001D00012002E120212904C
:07049B000106EEF0A3EFF0F3
:0104A2002237
:100D5300E4F521F521E52175F003A424F2F582E4FD
:100D63003400F583A3E0FAA3E04A601DE52175F0A2
:100D730003A424F2F582E43400F583A3E0FAA3E0AC
:100D8300F5828A83AF211203290521E521C3940645
:020D930040C35B
:010D9500223B
:100E9400EF14601614601914601C14601F1460228F
:100EA40024057023ED24FF92A122ED24FF92C22297
:100EB400ED24FF92A022ED24FF92C122ED24FF92A3
:080EC400B722ED24FF92B622D3
:100B29008F358D36E535C394065063E5369401500B
:100B39005D7F47121009E5352431FF1210097F3D09
:100B4900121009E5362430FF1210097F0A12100924
:100B5900E53514601714601B14601F1460231460BA
:100B69002724057029E53624FF92A222E53624FFC1
:100B790092A322E53624FF92A422E53624FF92A50A
:0F0B890022E53624FF92A622E53624FF92A7220A
:06102600A3F07D77AF315D
:10102C008F35AE05AF06121009E5352431FF1210CD
:06103C00097F0A02100901
:060B2200011200011300A6
:0A10B200EFD3940040031F80F722E3
:10109500AE07EED3940040087FFF1210B21E80F217
:0110A5002228
:100FEB00C3EF9512F51360158F12FF120FCAAF13D3
:0D0FFB00120F7DAF13120ECCAF13120003C6
:0110080022C5
:100D0F00E4F594F593F592F5917596FFF59575B217
:100D1F00E0F5B175B403F5B3F5CAF5C9120FA71213
:100D2F000F5312108412001ED2AF120E1712032B84
:100D3F00120D53120903120EFB1210CC120FEB12ED
:040D4F00002680E911
:10002E00EC4D6011E8497017ED33EC3304600DE4CC
:10003E00FCFFFEFD22E933E8330470F802027E1263
:10004E00024958046009E4CC248150062850090264
:10005E000288284003020285C0E0EB4A7044B98052
:10006E0006D0E0FB020274EF4E701CBD8008EBFF61
:10007E00EAFEE9FD80EBE98DF0A4FEE5F002011742
:10008E00E9CDF9EAFEEBFFEF89F0A4FCE5F0CE89AD
:10009E00F0A42EFFE435F0CD89F0A42DFEE435F06A
:1000AE008067EF4E7005BD80D780C3EF8BF0A4AC98
:1000BE00F0EE8BF0A42CFCE435F0F8EF8AF0A42CD3
:1000CE00E5F038FCE433CB8DF0A42CFCE5F03BF8E6
:1000DE00EE8AF0A42CFCE5F038F8E433CF89F0A4D6
:1000EE002CFCE5F038CF3400CE89F0A42FFFE5F0DC
:1000FE003EFEE433C98DF0A42EFEE5F039CD8AF034
:10010E00A42FFFE5F03EFEE43DFD33D0E0FB5007AB
:10011E000BBB000F020288EC2CFCEF33FFEE33FE1C
:06012E00ED33FD0202604A
:10013400020288EC5D046005E85904700302027E43
:10014400120249580460F6EC4860F2EC7004FDFEBB
:10015400FF22C860DB2481C85009C398600250069E
:100164000202859850CAF582E9294B4A7005AB8290
:1001740002027475F0007C1A7880C3EF9BEE9AED4E
:1001840099400DC3EF9BFFEE9AFEED99FDE842F016
:10019400DC23ACF0D0E0FFD0E0FED0E0FDAB822069
:1001A400E7101BEB60BAEC2CFCEF33FFEE33FEEDF3
:1001B40033FD020260E803F830E705C0F075F00093
:1001C400EF2FFFEE33FEED33FD40B830E7C280AAD7
:1001D40075F020800E75F010800575F0087D007EA6
:1001E400007F003392D530D503120317EC3340104F
:1001F400EF33FFEE33FEED33FDEC33FCD5F0ED22AF
:0E020400E5F0247EA2D513CC92E7CDCEFF22EA
:10021200EDD2E7CD33EC3392D524814006E4FFFEE4
:10022200FDFC22FCE4CFCECDCC24E0501174FF8043
:10023200EDC3CC13CCCD13CDCE13CECF13CF0470E0
:07024200F030D5DE020317C6
:10024900E9D2E7C933E833F892D5EDD2E7CD33ECFB
:0702590033FC5002B2D52274
:10026000EC30E7100FBF000C0EBE00080DBD0004FF
:100270000BEB6014A2D5EB13FCED92E7FD2274FFAB
:10028000FCFDFEFF22E480F8A2D574FF13FC7D8004
:03029000E480EF18
:0300000002099959
:0C099900787FE4F6D8FD7581F00209E0DB
:10029300BB010689828A83E0225002E722BBFE0269
:0902A300E32289828A83E493229C
:1002AC00BC000BBE0029EF8DF084FFADF022E4CC36
:1002BC00F875F008EF2FFFEE33FEEC33FCEE9DECFF
:1002CC00984005FCEE9DFE0FD5F0E9E4CEFD22ED45
:1002DC00F8F5F0EE8420D21CFEADF075F008EF2F8F
:1002EC00FFED33FD4007985006D5F0F222C398FD80
:0502FC000FD5F0EA221D
:10030100C5F0F8A3E028F0C5F0F8E5821582700287
:060311001583E038F02224
:0E031700C3E49FFFE49EFEE49DFDE49CFC22F7
:060325008A838982E47363
:100B98008B218A228923AB24AA25A926120293FE37
:100BA800AB21AA22A923120293FF6E702BEF600DCE
:100BB800E52815287002152714452770037F0022A1
:100BC80074012523F523E43522F52274012526F541
:100BD80026E43525F52580BEAB21AA22A9231202D9
:100BE80093FDD3EE6480F8ED64809840037F012282
:0F0BF800AB24AA25A926120293FFC3ED9FFF226B
:10105C00E4FFFE120293600C0FEF70010E09E970B1
:05106C00F20A80EF22F2
:1009A500020D0FE493A3F8E493A34003F68001F24C
:1009B50008DFF48029E493A3F85407240CC8C33353
:1009C500C4540F4420C8834004F456800146F6DF22
:1009D500E4800B0102040810204080900AB0E47EF8
:1009E500019360BCA3FF543F30E509541FFEE49317
:1009F500A360010ECF54C025E060A840B8E493A3DE
:100A0500FAE493A3F8E493A3C8C582C8CAC583CA08
:100A1500F0A3C8C582C8CAC583CADFE9DEE780BEC0
:010B280000CC
:00000001FF
