:0809ED00420138000001140072
:100E2F0043937F53948043915F5392A075BC807519
:100E3F00DE2F78EFE6FF08E6900138CFF0A3EFF052
:030E4F00D2AD22FF
:03002B00020F3889
:070F380075140153BCDF3208
:100DB000E4FDFCEFD3940F4004E4FEFF22E4F5BD14
:100DC000F5BEF514EF44C0F5BCE51460FCE4F51481
:0A0DD000AFBEAD07AFBDEFFEAF05EB
:010DDA0022F6
:040962008F34AB051E
:10096600E4F535F536F537F538F539F53A74FFF52A
:100976003BF53CE534D3940F4004E4FEFF22E4FA51
:10098600EAC39B505DAF34120DB08E838F82E58231
:100996002538F538E5833537F537C3E582953CE5E7
:1009A60083953B500685833B85823CD3E582953A09
:1009B600E5839539400685833985823AC3E53895BE
:1009C6003CFFE537953BFEC3EF953AFFEE9539FEC2
:1009D600EB24FEFDE434FFFC1202AC8E358F360AA2
:0609E600809EAE35AF3625
:0109EC0022E8
:090F2F00900138E0FEA3E0FF226E
:1009F50001116441010000410103004101020001B0
:060A05000E00020F0000CC
:100ECA00AD07AC06538EEF538EF7438E048CD6AF24
:0A0EDA00058FD753AFFB438E1022A3
:100DDB00438E017FCC7EFF120ECAE598543F4440F0
:100DEB00F598D2BCD2ACD29C53A23F439710C20011
:0A0DFB00E4900100F0900103F022E3
:03002300020AD0FE
:100AD000C0E0C083C082C0D075D000C00730984449
:100AE000C29885990E20013CE50E640D6036900198
:100AF00002E0FF04F074002FF582E43400F583E592
:100B00000EF0640A6007900102E0B43FD0D2019079
:100B10000102E02400F582E43400F583E4F0900162
:020B200002F0E1
:100B220080B9309904C299C200D007D0D0D082D007
:040B320083D0E0325A
:100D8300900103E0FF900100E0FE6F601F20001C54
:100D930074402EF582E43400F583E0F599D2009097
:0D0DA3000100E004F0C394C04002E4F0221F
:100E9100900103E02440F582E43400F583EFF09003
:0D0EA1000103E004F0C394C04002E4F0221D
:100EE400120293FF600C120E91740129F9E43AFA8C
:030EF40080EE226B
:100E0500900102E07005F50FF51022EF2510F510A1
:100E1500E4350FF50FD3E5109511E50F9400400962
:090E2500E4F50FF510900102F054
:010E2E0022A1
:030A0B00011500D2
:100EF700538EBFE4F589758B30758DF8D28ED2ABE2
:010F070022C7
:03001B00020018C8
:0300180005153299
:030F3F00AF1522C9
:0C0F19000E0001020403080B0A090C0D75
:100A0E0042013303E852011C000000000000000008
:100A1E0000000000000000000000020C0000020AAE
:100A2E000000420130000042013600004201040085
:100A3E0000420118000042011A0000410135004237
:0C0A4E00012E00004101320002080000EF
:04001E0075C1262260
:0400260043C11022A0
:100E5200EF2509F509E43508F508C3900134E0955A
:100E620009900133E095085007B2B5E4F508F50999
:010E7200225D
:100D5400E4FEEE25E02406F582E43401F583E0FCAC
:100D6400C3EC94805014EFFDEE25E02406F582E4F4
:0E0D74003401F583E48DF01203010EBE06D4A7
:010D8200224E
:10000300C390012EE09480500BA3E02FF090012EBB
:05001300E03400F022C2
:100CDD00E4F521120F2F8E0A8F0BE4F521E4FDAF01
:100CED0021120A61E52175F003A4241CF582E43478
:100CFD0001F58374FFF0A37407F0A3747CF07D6E8F
:0E0D0D00AF21120EB40521E521C3940640CF9C
:010D1B0022B5
:100C1B008F2AE4FD120D1C7D01AF2A120A61E52A11
:100C2B0025E02406F582E43401F58374FFF0A3F08C
:100C3B00E52A75F003A4241CF582E43401F58374D2
:100C4B00FFF0A37408F0A3743DF07D77AF2A020E7A
:010C5B00B4E4
:100C9D008F347D01120D1CE4FDAF34120A61E53471
:100CAD0025E02406F582E43401F583E4F0A3F0E5B4
:100CBD003475F003A4241CF582E43401F58374FF2C
:100CCD00F0A3740BF0A37491F07D74AF34020EB4E5
:100B3600E4F521900135F0F5217D01AF21120D1C60
:100B4600E4FDAF21120A61E52125E02406F582E4E1
:100B56003401F58374FFF0A3F0E490012EF0A3F0C6
:100B6600E52175F003A4241CF582E43401F58374B1
:100B7600FFF0A37407F0A3747CF07D6EAF21120E14
:0A0B8600B40521E521C3940640AF39
:010B90002242
:02077C008F22CA
:10077E00E4FED390012FE0942C90012EE0940150D2
:10078E000302083CE4F0A3F07D067F06120962D353
:10079E00900119E09F900118E09E507B90011BE0A4
:1007AE009F90011AE09E406F900132E004F0E4F554
:1007BE0022E4FDAF22120D1C0522E522C394064051
:1007CE00F0900132E0D394054064E4F090013504DA
:1007DE00F0E4F5227D01AF22120D1CE52225E02466
:1007EE0006F582E43401F583E4F0A3F0E52275F01A
:1007FE0003A4241CF582E43401F58374FFF0A37482
:10080E0006F0A374A4F07D72AF22120EB40522E599
:10081E0022C3940640BE22E4900132F0F5227D01FF
:0E082E00AF22120D1C0522E522C3940640F0F5
:01083C002299
:0206A4008F23A2
:1006A600E4F524F525F526F527F528F529FEE523B5
:1006B60025E02406F582E43401F583E0FCA3E0D3CB
:1006C6009464EC9400500302077BE52325E024069E
:1006D600F582E43401F583E4F0A3F07D067F06128B
:1006E60009628E248F25AC24AD25E41201D97BAE98
:1006F6007A477991783F12002E1202128E268F27A2
:10070600AC24AD25E41201D97B937A187994783F0D
:1007160012002E1202128E288F29E523900F1993AC
:10072600FF7D06120962D3E5279FE5269E5039E52F
:10073600299FE5289E403174122523F582E4340171
:10074600F583E004F074122523F582E43401F58381
:10075600E0C39403401F74122523F582E43401F5A7
:1007660083E4F0AF23020C1B74122523F582E434D4
:0507760001F583E4F031
:01077B00225B
:02083D008F2BFF
:10083F00E4F52CF52DEF900F1F93FF7D0612096243
:10084F008E2C8F2DC3900105E0952D900104E0951E
:10085F002C5005AF2B020C9DC3900137E0952D90C6
:10086F000136E0952C501EE52B75F003A4241CF5E2
:10087F0082E43401F58374FFF0A37405F0A374B41C
:10088F00F07D68802BD3900131E0952D900130E001
:10089F00952C4032E52B75F003A4241CF582E4342B
:1008AF0001F58374FFF0A37404F0A374A3F07D6CBF
:1008BF00AF2B120EB4E52B25E02406F582E43401AC
:0608CF00F583E4F0A3F044
:0108D5002200
:0205B4008F2E88
:1005B600E4F52FF530EF900F1F93FF7D06120962C9
:1005C6008E2F8F30C3900105E09530900104E095A1
:1005D6002F5002802BC3900137E09530900136E012
:1005E600952F5021E52E25E02406F582E43401F509
:1005F60083E0FEA3E0C3942CEE940150030206A30D
:10060600AF2E020C9DC3900131E09530900130E091
:10061600952F4033E52E75F003A4241CF582E434AF
:1006260001F58374FFF0A37404F0A374A3F07D6C4A
:10063600AF2E120EB4E52E25E02406F582E4340131
:10064600F583E4F0A3F022E52E25E02406F582E406
:100656003401F583C083C082E0C313FFA3E013D047
:1006660082D083CFF0A3EFF0E52E25E02406F582B5
:10067600E43401F583E0FEA3E04E7021E52E75F02B
:1006860003A4241CF582E43401F58374FFF0A374FB
:0D06960008F0A3743DF07D77AF2E120EB476
:0106A3002234
:0204A3008F3197
:1004A500E4F532F533EF900F1F93FF7D06120962D5
:1004B5008E328F33C3900105E09533900104E095AA
:1004C50032502CE53175F003A4241CF582E4340187
:1004D500F58374FFF0A37408F0743D120EAEE53198
:1004E50025E02406F582E43401F58374FF803EC3DC
:1004F500900137E09533900136E095325033E53180
:1005050075F003A4241CF582E43401F58374FFF02F
:10051500A37405F0A374B4F07D68AF31120EB4E591
:100525003125E02406F582E43401F583E4F0A3F0F7
:1005350022C3900131E09533900130E09532401EA1
:10054500E53125E02406F582E43401F583E0FEA3D8
:10055500E0C394F4EE94014055AF31020C9DE531B2
:1005650025E02406F582E43401F583C083C082E0EA
:10057500C313FFA3E013D082D083CFF0A3EFF0E540
:100585003125E02406F582E43401F583E0FEA3E09D
:100595004E701BE53175F003A4241CF582E434018B
:0E05A500F58374FFF0A37408F0743D120EAEDF
:0105B3002225
:100B9100EF25E02406F582E43401F583E0FCA3E0CF
:100BA100C394E8EC9403402EEF25E02406F582E49B
:100BB1003401F583E4F0A3F0EF75F003A4241CF5F0
:100BC10082E43401F58374FFF0A37406F0A374A4E6
:070BD100F07D72120EB42248
:10032B00E4FE7D067F0F1209628E0C8F0DAC0AADB9
:10033B000BE41201D9A804A905AA06AB077F007E1E
:10034B00807DED7C44120137C004C005C006C00798
:10035B00AC0CAD0DE41201D9D003D002D001D0000A
:10036B0012002E12021290011AEEF0A3EFF0AC0A5B
:10037B00AD0BE41201D9A804A905AA06AB07E4FF4B
:10038B00FE7DC87C44120137C004C005C006C007FF
:10039B00AC0CAD0DE41201D9D003D002D001D000CA
:1003AB0012002E120212900118EEF0A3EFF07D0650
:1003BB007F06120962900135E0601CD3900119E0B1
:1003CB009F900118E09E500C90011BE09F90011A2A
:1003DB00E09E5003120B36AC0AAD0BE41201D9A808
:1003EB0004A905AA06AB07E4FFFE7DC87C431201F6
:1003FB0037C004C005C006C007AC0CAD0DE412013C
:10040B00D9D003D002D001D00012002E12021290CC
:10041B000104EEF0A3EFF0AC0AAD0BE41201D9A886
:10042B0004A905AA06AB07E4FFFE7D967C431201E7
:10043B0037C004C005C006C007AC0CAD0DE41201FB
:10044B00D9D003D002D001D00012002E120212908C
:10045B000136EEF0A3EFF0AC0AAD0BE41201D9A814
:10046B0004A905AA06AB07E4FFFE7D207C4112011F
:10047B0037C004C005C006C007AC0CAD0DE41201BB
:10048B00D9D003D002D001D00012002E120212904C
:07049B000130EEF0A3EFF0C9
:0104A2002237
:100BD800E4F521F521E52175F003A4241CF582E450
:100BE8003401F583A3E0FAA3E04A601DE52175F01E
:100BF80003A4241CF582E43401F583A3E0FAA3E0FE
:100C0800F5828A83AF211203290521E521C39406C1
:020C180040C3D7
:010C1A0022B7
:100D1C00EF14601614601914601C14601F14602208
:100D2C0024057023ED24FF92A122ED24FF92C22210
:100D3C00ED24FF92A022ED24FF92C122ED24FF921C
:080D4C00B722ED24FF92B6224C
:100A61008F358D36E535C394065063E536940150D4
:100A71005D7F47120E91E5352431FF120E917F3DC6
:100A8100120E91E5362430FF120E917F0A120E915B
:100A9100E53514601714601B14601F146023146083
:100AA1002724057029E53624FF92A222E53624FF8A
:100AB10092A322E53624FF92A422E53624FF92A5D3
:0F0AC10022E53624FF92A622E53624FF92A722D3
:060EAE00A3F07D77AF31D7
:100EB4008F35AE05AF06120E91E5352431FF120EC3
:060EC400917F0A020E916D
:060A5A000112000113006F
:0A0F2500EFD3940040031F80F72271
:100F0800AE07EED3940040087FFF120F251E80F233
:010F180022B6
:100E7300C3EF9512F51360158F12FF120E52AF13C5
:0D0E8300120E05AF13120D54AF1312000331
:010E9000223F
:100C5C00E4F594F593F592F5917596FFF59575B2CB
:100C6C00E0F5B175B403F5B3F5CAF5C9120E2F1240
:100C7C000DDB120EF712001ED2AF120CDD12032B7D
:100C8C00120BD8120D83120F3F120E731200268016
:010C9C00EC6B
:10002E00EC4D6011E8497017ED33EC3304600DE4CC
:10003E00FCFFFEFD22E933E8330470F802027E1263
:10004E00024958046009E4CC248150062850090264
:10005E000288284003020285C0E0EB4A7044B98052
:10006E0006D0E0FB020274EF4E701CBD8008EBFF61
:10007E00EAFEE9FD80EBE98DF0A4FEE5F002011742
:10008E00E9CDF9EAFEEBFFEF89F0A4FCE5F0CE89AD
:10009E00F0A42EFFE435F0CD89F0A42DFEE435F06A
:1000AE008067EF4E7005BD80D780C3EF8BF0A4AC98
:1000BE00F0EE8BF0A42CFCE435F0F8EF8AF0A42CD3
:1000CE00E5F038FCE433CB8DF0A42CFCE5F03BF8E6
:1000DE00EE8AF0A42CFCE5F038F8E433CF89F0A4D6
:1000EE002CFCE5F038CF3400CE89F0A42FFFE5F0DC
:1000FE003EFEE433C98DF0A42EFEE5F039CD8AF034
:10010E00A42FFFE5F03EFEE43DFD33D0E0FB5007AB
:10011E000BBB000F020288EC2CFCEF33FFEE33FE1C
:06012E00ED33FD0202604A
:10013400020288EC5D046005E85904700302027E43
:10014400120249580460F6EC4860F2EC7004FDFEBB
:10015400FF22C860DB2481C85009C398600250069E
:100164000202859850CAF582E9294B4A7005AB8290
:1001740002027475F0007C1A7880C3EF9BEE9AED4E
:1001840099400DC3EF9BFFEE9AFEED99FDE842F016
:10019400DC23ACF0D0E0FFD0E0FED0E0FDAB822069
:1001A400E7101BEB60BAEC2CFCEF33FFEE33FEEDF3
:1001B40033FD020260E803F830E705C0F075F00093
:1001C400EF2FFFEE33FEED33FD40B830E7C280AAD7
:1001D40075F020800E75F010800575F0087D007EA6
:1001E400007F003392D530D503120317EC3340104F
:1001F400EF33FFEE33FEED33FDEC33FCD5F0ED22AF
:0E020400E5F0247EA2D513CC92E7CDCEFF22EA
:10021200EDD2E7CD33EC3392D524814006E4FFFEE4
:10022200FDFC22FCE4CFCECDCC24E0501174FF8043
:10023200EDC3CC13CCCD13CDCE13CECF13CF0470E0
:07024200F030D5DE020317C6
:10024900E9D2E7C933E833F892D5EDD2E7CD33ECFB
:0702590033FC5002B2D52274
:10026000EC30E7100FBF000C0EBE00080DBD0004FF
:100270000BEB6014A2D5EB13FCED92E7FD2274FFAB
:10028000FCFDFEFF22E480F8A2D574FF13FC7D8004
:03029000E480EF18
:030000000208D61D
:0C08D600787FE4F6D8FD7581F002091D62
:10029300BB010689828A83E0225002E722BBFE0269
:0902A300E32289828A83E493229C
:1002AC00BC000BBE0029EF8DF084FFADF022E4CC36
:1002BC00F875F008EF2FFFEE33FEEC33FCEE9DECFF
:1002CC00984005FCEE9DFE0FD5F0E9E4CEFD22ED45
:1002DC00F8F5F0EE8420D21CFEADF075F008EF2F8F
:1002EC00FFED33FD4007985006D5F0F222C398FD80
:0502FC000FD5F0EA221D
:10030100C5F0F8A3E028F0C5F0F8E5821582700287
:060311001583E038F02224
:0E031700C3E49FFFE49EFEE49DFDE49CFC22F7
:060325008A838982E47363
:1008E200020C5CE493A3F8E493A34003F68001F2C4
:1008F20008DFF48029E493A3F85407240CC8C33317
:10090200C4540F4420C8834004F456800146F6DFE5
:10091200E4800B01020408102040809009EDE47E7F
:10092200019360BCA3FF543F30E509541FFEE493DA
:10093200A360010ECF54C025E060A840B8E493A3A1
:10094200FAE493A3F8E493A3C8C582C8CAC583CACC
:10095200F0A3C8C582C8CAC583CADFE9DEE780BE84
:010A60000095
:00000001FF
